{
  "_format": "hh-sol-artifact-1",
  "contractName": "SecureUSDCTransfer",
  "sourceName": "contracts/SecureUSDCTransfer.sol",
  "abi": [
    {
      "inputs": [
        {
          "internalType": "address",
          "name": "_usdcTokenAddress",
          "type": "address"
        }
      ],
      "stateMutability": "nonpayable",
      "type": "constructor"
    },
    {
      "anonymous": false,
      "inputs": [
        {
          "indexed": true,
          "internalType": "address",
          "name": "sender",
          "type": "address"
        },
        {
          "indexed": true,
          "internalType": "address",
          "name": "recipient",
          "type": "address"
        },
        {
          "indexed": false,
          "internalType": "uint256",
          "name": "amount",
          "type": "uint256"
        },
        {
          "indexed": false,
          "internalType": "uint256",
          "name": "fee",
          "type": "uint256"
        },
        {
          "indexed": false,
          "internalType": "uint256",
          "name": "timestamp",
          "type": "uint256"
        }
      ],
      "name": "Transfer",
      "type": "event"
    },
    {
      "inputs": [
        {
          "internalType": "address",
          "name": "",
          "type": "address"
        }
      ],
      "name": "amountsSent",
      "outputs": [
        {
          "internalType": "uint256",
          "name": "",
          "type": "uint256"
        }
      ],
      "stateMutability": "view",
      "type": "function"
    },
    {
      "inputs": [],
      "name": "getTotalFeesCollected",
      "outputs": [
        {
          "internalType": "uint256",
          "name": "",
          "type": "uint256"
        }
      ],
      "stateMutability": "view",
      "type": "function"
    },
    {
      "inputs": [],
      "name": "getWhitelistedAddresses",
      "outputs": [
        {
          "internalType": "address[]",
          "name": "",
          "type": "address[]"
        }
      ],
      "stateMutability": "view",
      "type": "function"
    },
    {
      "inputs": [
        {
          "internalType": "address",
          "name": "",
          "type": "address"
        }
      ],
      "name": "isWhitelisted",
      "outputs": [
        {
          "internalType": "bool",
          "name": "",
          "type": "bool"
        }
      ],
      "stateMutability": "view",
      "type": "function"
    },
    {
      "inputs": [],
      "name": "owner",
      "outputs": [
        {
          "internalType": "address",
          "name": "",
          "type": "address"
        }
      ],
      "stateMutability": "view",
      "type": "function"
    },
    {
      "inputs": [
        {
          "internalType": "address",
          "name": "addr",
          "type": "address"
        }
      ],
      "name": "removeWhitelistedAddress",
      "outputs": [],
      "stateMutability": "nonpayable",
      "type": "function"
    },
    {
      "inputs": [],
      "name": "totalFeesCollected",
      "outputs": [
        {
          "internalType": "uint256",
          "name": "",
          "type": "uint256"
        }
      ],
      "stateMutability": "view",
      "type": "function"
    },
    {
      "inputs": [
        {
          "internalType": "address",
          "name": "newOwner",
          "type": "address"
        }
      ],
      "name": "transferOwnership",
      "outputs": [],
      "stateMutability": "nonpayable",
      "type": "function"
    },
    {
      "inputs": [
        {
          "internalType": "address",
          "name": "recipient",
          "type": "address"
        },
        {
          "internalType": "uint256",
          "name": "amount",
          "type": "uint256"
        }
      ],
      "name": "transferUSDC",
      "outputs": [],
      "stateMutability": "nonpayable",
      "type": "function"
    },
    {
      "inputs": [],
      "name": "usdcToken",
      "outputs": [
        {
          "internalType": "contract IERC20",
          "name": "",
          "type": "address"
        }
      ],
      "stateMutability": "view",
      "type": "function"
    },
    {
      "inputs": [
        {
          "internalType": "address",
          "name": "addr",
          "type": "address"
        }
      ],
      "name": "whitelistAddress",
      "outputs": [],
      "stateMutability": "nonpayable",
      "type": "function"
    },
    {
      "inputs": [
        {
          "internalType": "uint256",
          "name": "",
          "type": "uint256"
        }
      ],
      "name": "whitelistedAddresses",
      "outputs": [
        {
          "internalType": "address",
          "name": "",
          "type": "address"
        }
      ],
      "stateMutability": "view",
      "type": "function"
    }
  ],
  "bytecode": "0x60806040523480156200001157600080fd5b50604051620018a2380380620018a2833981810160405281019062000037919062000129565b806000806101000a81548173ffffffffffffffffffffffffffffffffffffffff021916908373ffffffffffffffffffffffffffffffffffffffff16021790555033600160006101000a81548173ffffffffffffffffffffffffffffffffffffffff021916908373ffffffffffffffffffffffffffffffffffffffff160217905550506200015b565b600080fd5b600073ffffffffffffffffffffffffffffffffffffffff82169050919050565b6000620000f182620000c4565b9050919050565b6200010381620000e4565b81146200010f57600080fd5b50565b6000815190506200012381620000f8565b92915050565b600060208284031215620001425762000141620000bf565b5b6000620001528482850162000112565b91505092915050565b611737806200016b6000396000f3fe608060405234801561001057600080fd5b50600436106100b45760003560e01c80636d028027116100715780636d0280271461017b5780638da5cb5b14610199578063ba4e5c49146101b7578063cd86c68e146101e7578063f2fde38b14610217578063f7aaaf3f14610233576100b4565b806311eac855146100b95780633af32abf146100d757806341566585146101075780634687650814610123578063530cd5ab1461014157806360c6d8ae1461015d575b600080fd5b6100c161024f565b6040516100ce9190610e52565b60405180910390f35b6100f160048036038101906100ec9190610eb0565b610273565b6040516100fe9190610ef8565b60405180910390f35b610121600480360381019061011c9190610eb0565b610293565b005b61012b6104b6565b6040516101389190610f2c565b60405180910390f35b61015b60048036038101906101569190610eb0565b6104c0565b005b6101656107c4565b6040516101729190610f2c565b60405180910390f35b6101836107ca565b6040516101909190611005565b60405180910390f35b6101a1610858565b6040516101ae9190611036565b60405180910390f35b6101d160048036038101906101cc919061107d565b61087e565b6040516101de9190611036565b60405180910390f35b61020160048036038101906101fc9190610eb0565b6108bd565b60405161020e9190610f2c565b60405180910390f35b610231600480360381019061022c9190610eb0565b6108d5565b005b61024d600480360381019061024891906110aa565b610a18565b005b60008054906101000a900473ffffffffffffffffffffffffffffffffffffffff1681565b60036020528060005260406000206000915054906101000a900460ff1681565b600160009054906101000a900473ffffffffffffffffffffffffffffffffffffffff1673ffffffffffffffffffffffffffffffffffffffff163373ffffffffffffffffffffffffffffffffffffffff1614610323576040517f08c379a000000000000000000000000000000000000000000000000000000000815260040161031a90611147565b60405180910390fd5b60036004805490501061036b576040517f08c379a0000000000000000000000000000000000000000000000000000000008152600401610362906111b3565b60405180910390fd5b600360008273ffffffffffffffffffffffffffffffffffffffff1673ffffffffffffffffffffffffffffffffffffffff16815260200190815260200160002060009054906101000a900460ff16156103f8576040517f08c379a00000000000000000000000000000000000000000000000000000000081526004016103ef9061121f565b60405180910390fd5b6001600360008373ffffffffffffffffffffffffffffffffffffffff1673ffffffffffffffffffffffffffffffffffffffff16815260200190815260200160002060006101000a81548160ff0219169083151502179055506004819080600181540180825580915050600190039060005260206000200160009091909190916101000a81548173ffffffffffffffffffffffffffffffffffffffff021916908373ffffffffffffffffffffffffffffffffffffffff16021790555050565b6000600554905090565b600160009054906101000a900473ffffffffffffffffffffffffffffffffffffffff1673ffffffffffffffffffffffffffffffffffffffff163373ffffffffffffffffffffffffffffffffffffffff1614610550576040517f08c379a000000000000000000000000000000000000000000000000000000000815260040161054790611147565b60405180910390fd5b600360008273ffffffffffffffffffffffffffffffffffffffff1673ffffffffffffffffffffffffffffffffffffffff16815260200190815260200160002060009054906101000a900460ff166105dc576040517f08c379a00000000000000000000000000000000000000000000000000000000081526004016105d39061128b565b60405180910390fd5b6000600360008373ffffffffffffffffffffffffffffffffffffffff1673ffffffffffffffffffffffffffffffffffffffff16815260200190815260200160002060006101000a81548160ff02191690831515021790555060005b6004805490508110156107c0578173ffffffffffffffffffffffffffffffffffffffff166004828154811061066f5761066e6112ab565b5b9060005260206000200160009054906101000a900473ffffffffffffffffffffffffffffffffffffffff1673ffffffffffffffffffffffffffffffffffffffff16036107ad57600460016004805490506106c99190611309565b815481106106da576106d96112ab565b5b9060005260206000200160009054906101000a900473ffffffffffffffffffffffffffffffffffffffff1660048281548110610719576107186112ab565b5b9060005260206000200160006101000a81548173ffffffffffffffffffffffffffffffffffffffff021916908373ffffffffffffffffffffffffffffffffffffffff16021790555060048054806107735761077261133d565b5b6001900381819060005260206000200160006101000a81549073ffffffffffffffffffffffffffffffffffffffff021916905590556107c0565b80806107b89061136c565b915050610637565b5050565b60055481565b6060600480548060200260200160405190810160405280929190818152602001828054801561084e57602002820191906000526020600020905b8160009054906101000a900473ffffffffffffffffffffffffffffffffffffffff1673ffffffffffffffffffffffffffffffffffffffff1681526020019060010190808311610804575b5050505050905090565b600160009054906101000a900473ffffffffffffffffffffffffffffffffffffffff1681565b6004818154811061088e57600080fd5b906000526020600020016000915054906101000a900473ffffffffffffffffffffffffffffffffffffffff1681565b60026020528060005260406000206000915090505481565b600160009054906101000a900473ffffffffffffffffffffffffffffffffffffffff1673ffffffffffffffffffffffffffffffffffffffff163373ffffffffffffffffffffffffffffffffffffffff1614610965576040517f08c379a000000000000000000000000000000000000000000000000000000000815260040161095c90611147565b60405180910390fd5b600073ffffffffffffffffffffffffffffffffffffffff168173ffffffffffffffffffffffffffffffffffffffff16036109d4576040517f08c379a00000000000000000000000000000000000000000000000000000000081526004016109cb90611400565b60405180910390fd5b80600160006101000a81548173ffffffffffffffffffffffffffffffffffffffff021916908373ffffffffffffffffffffffffffffffffffffffff16021790555050565b600360003373ffffffffffffffffffffffffffffffffffffffff1673ffffffffffffffffffffffffffffffffffffffff16815260200190815260200160002060009054906101000a900460ff16610aa4576040517f08c379a0000000000000000000000000000000000000000000000000000000008152600401610a9b9061128b565b60405180910390fd5b60008111610ae7576040517f08c379a0000000000000000000000000000000000000000000000000000000008152600401610ade9061146c565b60405180910390fd5b60006103e8600583610af9919061148c565b610b0391906114fd565b905060008183610b139190611309565b905060008054906101000a900473ffffffffffffffffffffffffffffffffffffffff1673ffffffffffffffffffffffffffffffffffffffff166323b872dd3386846040518463ffffffff1660e01b8152600401610b729392919061152e565b6020604051808303816000875af1158015610b91573d6000803e3d6000fd5b505050506040513d601f19601f82011682018060405250810190610bb59190611591565b610bf4576040517f08c379a0000000000000000000000000000000000000000000000000000000008152600401610beb9061160a565b60405180910390fd5b60008054906101000a900473ffffffffffffffffffffffffffffffffffffffff1673ffffffffffffffffffffffffffffffffffffffff166323b872dd33600160009054906101000a900473ffffffffffffffffffffffffffffffffffffffff16856040518463ffffffff1660e01b8152600401610c739392919061152e565b6020604051808303816000875af1158015610c92573d6000803e3d6000fd5b505050506040513d601f19601f82011682018060405250810190610cb69190611591565b610cf5576040517f08c379a0000000000000000000000000000000000000000000000000000000008152600401610cec90611676565b60405180910390fd5b80600260003373ffffffffffffffffffffffffffffffffffffffff1673ffffffffffffffffffffffffffffffffffffffff1681526020019081526020016000206000828254610d449190611696565b925050819055508160056000828254610d5d9190611696565b925050819055508373ffffffffffffffffffffffffffffffffffffffff163373ffffffffffffffffffffffffffffffffffffffff167fc817d75deaa278e988c41cf549ef38fe195ab65e0e64cd67ba47f0d185690d58838542604051610dc5939291906116ca565b60405180910390a350505050565b600073ffffffffffffffffffffffffffffffffffffffff82169050919050565b6000819050919050565b6000610e18610e13610e0e84610dd3565b610df3565b610dd3565b9050919050565b6000610e2a82610dfd565b9050919050565b6000610e3c82610e1f565b9050919050565b610e4c81610e31565b82525050565b6000602082019050610e676000830184610e43565b92915050565b600080fd5b6000610e7d82610dd3565b9050919050565b610e8d81610e72565b8114610e9857600080fd5b50565b600081359050610eaa81610e84565b92915050565b600060208284031215610ec657610ec5610e6d565b5b6000610ed484828501610e9b565b91505092915050565b60008115159050919050565b610ef281610edd565b82525050565b6000602082019050610f0d6000830184610ee9565b92915050565b6000819050919050565b610f2681610f13565b82525050565b6000602082019050610f416000830184610f1d565b92915050565b600081519050919050565b600082825260208201905092915050565b6000819050602082019050919050565b610f7c81610e72565b82525050565b6000610f8e8383610f73565b60208301905092915050565b6000602082019050919050565b6000610fb282610f47565b610fbc8185610f52565b9350610fc783610f63565b8060005b83811015610ff8578151610fdf8882610f82565b9750610fea83610f9a565b925050600181019050610fcb565b5085935050505092915050565b6000602082019050818103600083015261101f8184610fa7565b905092915050565b61103081610e72565b82525050565b600060208201905061104b6000830184611027565b92915050565b61105a81610f13565b811461106557600080fd5b50565b60008135905061107781611051565b92915050565b60006020828403121561109357611092610e6d565b5b60006110a184828501611068565b91505092915050565b600080604083850312156110c1576110c0610e6d565b5b60006110cf85828601610e9b565b92505060206110e085828601611068565b9150509250929050565b600082825260208201905092915050565b7f4e6f7420617574686f72697a6564000000000000000000000000000000000000600082015250565b6000611131600e836110ea565b915061113c826110fb565b602082019050919050565b6000602082019050818103600083015261116081611124565b9050919050565b7f57686974656c697374206c696d69742072656163686564000000000000000000600082015250565b600061119d6017836110ea565b91506111a882611167565b602082019050919050565b600060208201905081810360008301526111cc81611190565b9050919050565b7f4164647265737320616c72656164792077686974656c69737465640000000000600082015250565b6000611209601b836110ea565b9150611214826111d3565b602082019050919050565b60006020820190508181036000830152611238816111fc565b9050919050565b7f4e6f742077686974656c69737465640000000000000000000000000000000000600082015250565b6000611275600f836110ea565b91506112808261123f565b602082019050919050565b600060208201905081810360008301526112a481611268565b9050919050565b7f4e487b7100000000000000000000000000000000000000000000000000000000600052603260045260246000fd5b7f4e487b7100000000000000000000000000000000000000000000000000000000600052601160045260246000fd5b600061131482610f13565b915061131f83610f13565b9250828203905081811115611337576113366112da565b5b92915050565b7f4e487b7100000000000000000000000000000000000000000000000000000000600052603160045260246000fd5b600061137782610f13565b91507fffffffffffffffffffffffffffffffffffffffffffffffffffffffffffffffff82036113a9576113a86112da565b5b600182019050919050565b7f496e76616c696420616464726573730000000000000000000000000000000000600082015250565b60006113ea600f836110ea565b91506113f5826113b4565b602082019050919050565b60006020820190508181036000830152611419816113dd565b9050919050565b7f416d6f756e74206d7573742062652067726561746572207468616e207a65726f600082015250565b60006114566020836110ea565b915061146182611420565b602082019050919050565b6000602082019050818103600083015261148581611449565b9050919050565b600061149782610f13565b91506114a283610f13565b92508282026114b081610f13565b915082820484148315176114c7576114c66112da565b5b5092915050565b7f4e487b7100000000000000000000000000000000000000000000000000000000600052601260045260246000fd5b600061150882610f13565b915061151383610f13565b925082611523576115226114ce565b5b828204905092915050565b60006060820190506115436000830186611027565b6115506020830185611027565b61155d6040830184610f1d565b949350505050565b61156e81610edd565b811461157957600080fd5b50565b60008151905061158b81611565565b92915050565b6000602082840312156115a7576115a6610e6d565b5b60006115b58482850161157c565b91505092915050565b7f5472616e73666572206661696c65640000000000000000000000000000000000600082015250565b60006115f4600f836110ea565b91506115ff826115be565b602082019050919050565b60006020820190508181036000830152611623816115e7565b9050919050565b7f466565207472616e73666572206661696c656400000000000000000000000000600082015250565b60006116606013836110ea565b915061166b8261162a565b602082019050919050565b6000602082019050818103600083015261168f81611653565b9050919050565b60006116a182610f13565b91506116ac83610f13565b92508282019050808211156116c4576116c36112da565b5b92915050565b60006060820190506116df6000830186610f1d565b6116ec6020830185610f1d565b6116f96040830184610f1d565b94935050505056fea2646970667358221220d3bb093ce48a66fd471257125dd74ea1a2f58532439b6731f136a9b77a3105c964736f6c63430008140033",
  "linkReferences": {},
  "deployedLinkReferences": {}
}